{
  "_format": "hh-sol-artifact-1",
  "contractName": "CarlGalleryClub",
  "sourceName": "contracts/CarlGalleryClub.sol",
  "abi": [
    {
      "inputs": [
        {
          "internalType": "string",
          "name": "_tokenName",
          "type": "string"
        },
        {
          "internalType": "string",
          "name": "_tokenSymbol",
          "type": "string"
        }
      ],
      "stateMutability": "nonpayable",
      "type": "constructor"
    },
    {
      "anonymous": false,
      "inputs": [
        {
          "indexed": true,
          "internalType": "address",
          "name": "owner",
          "type": "address"
        },
        {
          "indexed": true,
          "internalType": "address",
          "name": "approved",
          "type": "address"
        },
        {
          "indexed": true,
          "internalType": "uint256",
          "name": "tokenId",
          "type": "uint256"
        }
      ],
      "name": "Approval",
      "type": "event"
    },
    {
      "anonymous": false,
      "inputs": [
        {
          "indexed": true,
          "internalType": "address",
          "name": "owner",
          "type": "address"
        },
        {
          "indexed": true,
          "internalType": "address",
          "name": "operator",
          "type": "address"
        },
        {
          "indexed": false,
          "internalType": "bool",
          "name": "approved",
          "type": "bool"
        }
      ],
      "name": "ApprovalForAll",
      "type": "event"
    },
    {
      "anonymous": false,
      "inputs": [
        {
          "indexed": true,
          "internalType": "address",
          "name": "_to",
          "type": "address"
        },
        {
          "indexed": true,
          "internalType": "uint256",
          "name": "_tokenId",
          "type": "uint256"
        },
        {
          "indexed": true,
          "internalType": "uint256",
          "name": "_projectId",
          "type": "uint256"
        },
        {
          "indexed": false,
          "internalType": "uint256",
          "name": "_value",
          "type": "uint256"
        }
      ],
      "name": "Mint",
      "type": "event"
    },
    {
      "anonymous": false,
      "inputs": [
        {
          "indexed": true,
          "internalType": "address",
          "name": "from",
          "type": "address"
        },
        {
          "indexed": true,
          "internalType": "address",
          "name": "to",
          "type": "address"
        },
        {
          "indexed": true,
          "internalType": "uint256",
          "name": "tokenId",
          "type": "uint256"
        }
      ],
      "name": "Transfer",
      "type": "event"
    },
    {
      "inputs": [],
      "name": "CGCAddress",
      "outputs": [
        {
          "internalType": "address payable",
          "name": "",
          "type": "address"
        }
      ],
      "stateMutability": "view",
      "type": "function"
    },
    {
      "inputs": [],
      "name": "CGCPercentage",
      "outputs": [
        {
          "internalType": "uint256",
          "name": "",
          "type": "uint256"
        }
      ],
      "stateMutability": "view",
      "type": "function"
    },
    {
      "inputs": [
        {
          "internalType": "address",
          "name": "_address",
          "type": "address"
        }
      ],
      "name": "addAdmin",
      "outputs": [],
      "stateMutability": "nonpayable",
      "type": "function"
    },
    {
      "inputs": [
        {
          "internalType": "string",
          "name": "_name",
          "type": "string"
        },
        {
          "internalType": "uint256",
          "name": "_pricePerTokenInWei",
          "type": "uint256"
        },
        {
          "internalType": "uint256",
          "name": "_maxInvocations",
          "type": "uint256"
        },
        {
          "internalType": "string",
          "name": "_artist",
          "type": "string"
        },
        {
          "internalType": "string",
          "name": "_description",
          "type": "string"
        },
        {
          "internalType": "string",
          "name": "_projectBaseURI",
          "type": "string"
        },
        {
          "internalType": "bool",
          "name": "_reveal",
          "type": "bool"
        }
      ],
      "name": "addProject",
      "outputs": [],
      "stateMutability": "nonpayable",
      "type": "function"
    },
    {
      "inputs": [
        {
          "internalType": "address",
          "name": "to",
          "type": "address"
        },
        {
          "internalType": "uint256",
          "name": "tokenId",
          "type": "uint256"
        }
      ],
      "name": "approve",
      "outputs": [],
      "stateMutability": "nonpayable",
      "type": "function"
    },
    {
      "inputs": [
        {
          "internalType": "address",
          "name": "owner",
          "type": "address"
        }
      ],
      "name": "balanceOf",
      "outputs": [
        {
          "internalType": "uint256",
          "name": "",
          "type": "uint256"
        }
      ],
      "stateMutability": "view",
      "type": "function"
    },
    {
      "inputs": [
        {
          "internalType": "uint256",
          "name": "tokenId",
          "type": "uint256"
        }
      ],
      "name": "getApproved",
      "outputs": [
        {
          "internalType": "address",
          "name": "",
          "type": "address"
        }
      ],
      "stateMutability": "view",
      "type": "function"
    },
    {
      "inputs": [
        {
          "internalType": "address",
          "name": "",
          "type": "address"
        }
      ],
      "name": "isAdmin",
      "outputs": [
        {
          "internalType": "bool",
          "name": "",
          "type": "bool"
        }
      ],
      "stateMutability": "view",
      "type": "function"
    },
    {
      "inputs": [
        {
          "internalType": "address",
          "name": "owner",
          "type": "address"
        },
        {
          "internalType": "address",
          "name": "operator",
          "type": "address"
        }
      ],
      "name": "isApprovedForAll",
      "outputs": [
        {
          "internalType": "bool",
          "name": "",
          "type": "bool"
        }
      ],
      "stateMutability": "view",
      "type": "function"
    },
    {
      "inputs": [
        {
          "internalType": "uint256",
          "name": "_projectId",
          "type": "uint256"
        }
      ],
      "name": "isPreSale",
      "outputs": [
        {
          "internalType": "bool",
          "name": "",
          "type": "bool"
        }
      ],
      "stateMutability": "view",
      "type": "function"
    },
    {
      "inputs": [
        {
          "internalType": "uint256",
          "name": "_projectId",
          "type": "uint256"
        },
        {
          "internalType": "address",
          "name": "_user",
          "type": "address"
        }
      ],
      "name": "isWhiteListed",
      "outputs": [
        {
          "internalType": "bool",
          "name": "",
          "type": "bool"
        }
      ],
      "stateMutability": "view",
      "type": "function"
    },
    {
      "inputs": [],
      "name": "name",
      "outputs": [
        {
          "internalType": "string",
          "name": "",
          "type": "string"
        }
      ],
      "stateMutability": "view",
      "type": "function"
    },
    {
      "inputs": [],
      "name": "nextProjectId",
      "outputs": [
        {
          "internalType": "uint256",
          "name": "",
          "type": "uint256"
        }
      ],
      "stateMutability": "view",
      "type": "function"
    },
    {
      "inputs": [
        {
          "internalType": "uint256",
          "name": "tokenId",
          "type": "uint256"
        }
      ],
      "name": "ownerOf",
      "outputs": [
        {
          "internalType": "address",
          "name": "",
          "type": "address"
        }
      ],
      "stateMutability": "view",
      "type": "function"
    },
    {
      "inputs": [
        {
          "internalType": "uint256",
          "name": "_projectId",
          "type": "uint256"
        }
      ],
      "name": "projectDetails",
      "outputs": [
        {
          "internalType": "string",
          "name": "projectName",
          "type": "string"
        },
        {
          "internalType": "string",
          "name": "artist",
          "type": "string"
        },
        {
          "internalType": "string",
          "name": "description",
          "type": "string"
        }
      ],
      "stateMutability": "view",
      "type": "function"
    },
    {
      "inputs": [
        {
          "internalType": "uint256",
          "name": "_projectId",
          "type": "uint256"
        }
      ],
      "name": "projectShowAllTokens",
      "outputs": [
        {
          "internalType": "uint256[]",
          "name": "",
          "type": "uint256[]"
        }
      ],
      "stateMutability": "view",
      "type": "function"
    },
    {
      "inputs": [
        {
          "internalType": "uint256",
          "name": "_projectId",
          "type": "uint256"
        }
      ],
      "name": "projectTokenInfo",
      "outputs": [
        {
          "internalType": "uint256",
          "name": "pricePerTokenInWei",
          "type": "uint256"
        },
        {
          "internalType": "uint256",
          "name": "invocations",
          "type": "uint256"
        },
        {
          "internalType": "uint256",
          "name": "maxInvocations",
          "type": "uint256"
        }
      ],
      "stateMutability": "view",
      "type": "function"
    },
    {
      "inputs": [
        {
          "internalType": "uint256",
          "name": "_projectId",
          "type": "uint256"
        }
      ],
      "name": "purchase",
      "outputs": [
        {
          "internalType": "uint256",
          "name": "_tokenId",
          "type": "uint256"
        }
      ],
      "stateMutability": "payable",
      "type": "function"
    },
    {
      "inputs": [
        {
          "internalType": "address",
          "name": "_to",
          "type": "address"
        },
        {
          "internalType": "uint256",
          "name": "_projectId",
          "type": "uint256"
        }
      ],
      "name": "purchaseTo",
      "outputs": [
        {
          "internalType": "uint256",
          "name": "_tokenId",
          "type": "uint256"
        }
      ],
      "stateMutability": "payable",
      "type": "function"
    },
    {
      "inputs": [
        {
          "internalType": "address",
          "name": "_address",
          "type": "address"
        }
      ],
      "name": "removeAdmin",
      "outputs": [],
      "stateMutability": "nonpayable",
      "type": "function"
    },
    {
      "inputs": [
        {
          "internalType": "address",
          "name": "from",
          "type": "address"
        },
        {
          "internalType": "address",
          "name": "to",
          "type": "address"
        },
        {
          "internalType": "uint256",
          "name": "tokenId",
          "type": "uint256"
        }
      ],
      "name": "safeTransferFrom",
      "outputs": [],
      "stateMutability": "nonpayable",
      "type": "function"
    },
    {
      "inputs": [
        {
          "internalType": "address",
          "name": "from",
          "type": "address"
        },
        {
          "internalType": "address",
          "name": "to",
          "type": "address"
        },
        {
          "internalType": "uint256",
          "name": "tokenId",
          "type": "uint256"
        },
        {
          "internalType": "bytes",
          "name": "data",
          "type": "bytes"
        }
      ],
      "name": "safeTransferFrom",
      "outputs": [],
      "stateMutability": "nonpayable",
      "type": "function"
    },
    {
      "inputs": [
        {
          "internalType": "address",
          "name": "operator",
          "type": "address"
        },
        {
          "internalType": "bool",
          "name": "approved",
          "type": "bool"
        }
      ],
      "name": "setApprovalForAll",
      "outputs": [],
      "stateMutability": "nonpayable",
      "type": "function"
    },
    {
      "inputs": [
        {
          "internalType": "bytes4",
          "name": "interfaceId",
          "type": "bytes4"
        }
      ],
      "name": "supportsInterface",
      "outputs": [
        {
          "internalType": "bool",
          "name": "",
          "type": "bool"
        }
      ],
      "stateMutability": "view",
      "type": "function"
    },
    {
      "inputs": [],
      "name": "symbol",
      "outputs": [
        {
          "internalType": "string",
          "name": "",
          "type": "string"
        }
      ],
      "stateMutability": "view",
      "type": "function"
    },
    {
      "inputs": [
        {
          "internalType": "uint256",
          "name": "_projectId",
          "type": "uint256"
        }
      ],
      "name": "toggleProjectIsPaused",
      "outputs": [],
      "stateMutability": "nonpayable",
      "type": "function"
    },
    {
      "inputs": [
        {
          "internalType": "uint256",
          "name": "_projectId",
          "type": "uint256"
        }
      ],
      "name": "toggleProjectIsPreSale",
      "outputs": [],
      "stateMutability": "nonpayable",
      "type": "function"
    },
    {
      "inputs": [
        {
          "internalType": "uint256",
          "name": "_projectId",
          "type": "uint256"
        },
        {
          "internalType": "address",
          "name": "user",
          "type": "address"
        }
      ],
      "name": "toggleWhiteListed",
      "outputs": [],
      "stateMutability": "nonpayable",
      "type": "function"
    },
    {
      "inputs": [
        {
          "internalType": "uint256",
          "name": "",
          "type": "uint256"
        }
      ],
      "name": "tokenIdToProjectId",
      "outputs": [
        {
          "internalType": "uint256",
          "name": "",
          "type": "uint256"
        }
      ],
      "stateMutability": "view",
      "type": "function"
    },
    {
      "inputs": [
        {
          "internalType": "uint256",
          "name": "_tokenId",
          "type": "uint256"
        }
      ],
      "name": "tokenURI",
      "outputs": [
        {
          "internalType": "string",
          "name": "",
          "type": "string"
        }
      ],
      "stateMutability": "view",
      "type": "function"
    },
    {
      "inputs": [
        {
          "internalType": "address",
          "name": "from",
          "type": "address"
        },
        {
          "internalType": "address",
          "name": "to",
          "type": "address"
        },
        {
          "internalType": "uint256",
          "name": "tokenId",
          "type": "uint256"
        }
      ],
      "name": "transferFrom",
      "outputs": [],
      "stateMutability": "nonpayable",
      "type": "function"
    },
    {
      "inputs": [
        {
          "internalType": "address payable",
          "name": "_CGCAddress",
          "type": "address"
        }
      ],
      "name": "updateCGCAddress",
      "outputs": [],
      "stateMutability": "nonpayable",
      "type": "function"
    },
    {
      "inputs": [
        {
          "internalType": "uint256",
          "name": "_CGCPercentage",
          "type": "uint256"
        }
      ],
      "name": "updateCGCPercentage",
      "outputs": [],
      "stateMutability": "nonpayable",
      "type": "function"
    },
    {
      "inputs": [
        {
          "internalType": "uint256",
          "name": "_projectId",
          "type": "uint256"
        },
        {
          "internalType": "string",
          "name": "_newBaseURI",
          "type": "string"
        }
      ],
      "name": "updateProjectBaseURI",
      "outputs": [],
      "stateMutability": "nonpayable",
      "type": "function"
    },
    {
      "inputs": [
        {
          "internalType": "uint256",
          "name": "_projectId",
          "type": "uint256"
        },
        {
          "internalType": "uint256",
          "name": "_maxInvocations",
          "type": "uint256"
        }
      ],
      "name": "updateProjectMaxInvocations",
      "outputs": [],
      "stateMutability": "nonpayable",
      "type": "function"
    },
    {
      "inputs": [
        {
          "internalType": "uint256",
          "name": "_projectId",
          "type": "uint256"
        },
        {
          "internalType": "uint256",
          "name": "_pricePerTokenInWei",
          "type": "uint256"
        }
      ],
      "name": "updateProjectPricePerTokenInWei",
      "outputs": [],
      "stateMutability": "nonpayable",
      "type": "function"
    },
    {
      "inputs": [
        {
          "internalType": "address",
          "name": "",
          "type": "address"
        },
        {
          "internalType": "uint256",
          "name": "",
          "type": "uint256"
        }
      ],
      "name": "userOwnedTokens",
      "outputs": [
        {
          "internalType": "uint256",
          "name": "",
          "type": "uint256"
        }
      ],
      "stateMutability": "view",
      "type": "function"
    }
  ],
  "bytecode": "0x6080604052600a6008553480156200001657600080fd5b50604051620029b5380380620029b583398101604081905262000039916200015a565b8181600062000049838262000253565b50600162000058828262000253565b5050336000818152600d60205260408120805460ff19166001179055600780546001600160a01b031916909217909155600955506200031f915050565b634e487b7160e01b600052604160045260246000fd5b600082601f830112620000bd57600080fd5b81516001600160401b0380821115620000da57620000da62000095565b604051601f8301601f19908116603f0116810190828211818310171562000105576200010562000095565b816040528381526020925086838588010111156200012257600080fd5b600091505b8382101562000146578582018301518183018401529082019062000127565b600093810190920192909252949350505050565b600080604083850312156200016e57600080fd5b82516001600160401b03808211156200018657600080fd5b6200019486838701620000ab565b93506020850151915080821115620001ab57600080fd5b50620001ba85828601620000ab565b9150509250929050565b600181811c90821680620001d957607f821691505b602082108103620001fa57634e487b7160e01b600052602260045260246000fd5b50919050565b601f8211156200024e57600081815260208120601f850160051c81016020861015620002295750805b601f850160051c820191505b818110156200024a5782815560010162000235565b5050505b505050565b81516001600160401b038111156200026f576200026f62000095565b6200028781620002808454620001c4565b8462000200565b602080601f831160018114620002bf5760008415620002a65750858301515b600019600386901b1c1916600185901b1785556200024a565b600085815260208120601f198616915b82811015620002f057888601518255948401946001909101908401620002cf565b50858210156200030f5787850151600019600388901b60f8161c191681555b5050505050600190811b01905550565b612686806200032f6000396000f3fe60806040526004361061021a5760003560e01c8063811fb26311610123578063a22cb465116100ab578063c87b56dd1161006f578063c87b56dd146106ff578063c8a2ae7d1461071f578063e935b7b11461073f578063e985e9c514610755578063efef39a11461079e57600080fd5b8063a22cb46514610610578063abcb072214610630578063b88d4fde14610668578063ba129b9b14610688578063bee04f9c146106d257600080fd5b80638c47a001116100f25780638c47a0011461055c5780638dd91a561461057c57806395d89b41146105ab57806397dc86cf146105c0578063a11ec70a146105f057600080fd5b8063811fb263146104bb578063826fc391146104d1578063891407c0146104f15780638c2c36221461050457600080fd5b806324d7806c116101a657806350c58df81161017557806350c58df81461041b5780636352211e1461043b5780636d6523221461045b578063704802751461047b57806370a082311461049b57600080fd5b806324d7806c1461038b5780632ed484e5146103bb5780633e48e848146103db57806342842e0e146103fb57600080fd5b806314b924e2116101ed57806314b924e2146102d05780631785f53c146102fe5780631a46e75a1461031e5780631b689c0b1461033e57806323b872dd1461036b57600080fd5b806301ffc9a71461021f57806306fdde0314610254578063081812fc14610276578063095ea7b3146102ae575b600080fd5b34801561022b57600080fd5b5061023f61023a366004611dba565b6107b1565b60405190151581526020015b60405180910390f35b34801561026057600080fd5b50610269610803565b60405161024b9190611e2e565b34801561028257600080fd5b50610296610291366004611e41565b610895565b6040516001600160a01b03909116815260200161024b565b3480156102ba57600080fd5b506102ce6102c9366004611e6f565b6108bc565b005b3480156102dc57600080fd5b506102f06102eb366004611e6f565b6109d6565b60405190815260200161024b565b34801561030a57600080fd5b506102ce610319366004611e9b565b610a07565b34801561032a57600080fd5b50600754610296906001600160a01b031681565b34801561034a57600080fd5b506102f0610359366004611e41565b600a6020526000908152604090205481565b34801561037757600080fd5b506102ce610386366004611eb8565b610a57565b34801561039757600080fd5b5061023f6103a6366004611e9b565b600d6020526000908152604090205460ff1681565b3480156103c757600080fd5b506102ce6103d6366004611ef9565b610a88565b3480156103e757600080fd5b506102ce6103f6366004611fd5565b610af1565b34801561040757600080fd5b506102ce610416366004611eb8565b610b0d565b34801561042757600080fd5b506102ce610436366004612031565b610b28565b34801561044757600080fd5b50610296610456366004611e41565b610c2b565b34801561046757600080fd5b506102ce610476366004611e41565b610c8b565b34801561048757600080fd5b506102ce610496366004611e9b565b610ce6565b3480156104a757600080fd5b506102f06104b6366004611e9b565b610d39565b3480156104c757600080fd5b506102f060085481565b3480156104dd57600080fd5b506102ce6104ec366004612102565b610dbf565b6102f06104ff366004611e6f565b610e89565b34801561051057600080fd5b5061054161051f366004611e41565b6000908152600660205260409020600581015460038201546004909201549092565b6040805193845260208401929092529082015260600161024b565b34801561056857600080fd5b506102ce610577366004611e9b565b611087565b34801561058857600080fd5b5061059c610597366004611e41565b6110d8565b60405161024b93929190612124565b3480156105b757600080fd5b506102696112be565b3480156105cc57600080fd5b506102ce6105db366004612102565b60009182526006602052604090912060050155565b3480156105fc57600080fd5b506102ce61060b366004611e41565b6112cd565b34801561061c57600080fd5b506102ce61062b366004612167565b61131f565b34801561063c57600080fd5b5061023f61064b366004611e41565b600090815260066020526040902060070154610100900460ff1690565b34801561067457600080fd5b506102ce61068336600461219c565b61132e565b34801561069457600080fd5b5061023f6106a3366004611ef9565b60008281526006602090815260408083206001600160a01b038516845260080190915290205460ff1692915050565b3480156106de57600080fd5b506106f26106ed366004611e41565b611366565b60405161024b919061221c565b34801561070b57600080fd5b5061026961071a366004611e41565b6113c8565b34801561072b57600080fd5b506102ce61073a366004611e41565b6114ee565b34801561074b57600080fd5b506102f0600e5481565b34801561076157600080fd5b5061023f610770366004612260565b6001600160a01b03918216600090815260056020908152604080832093909416825291909152205460ff1690565b6102f06107ac366004611e41565b611522565b60006001600160e01b031982166380ac58cd60e01b14806107e257506001600160e01b03198216635b5e139f60e01b145b806107fd57506301ffc9a760e01b6001600160e01b03198316145b92915050565b6060600080546108129061228e565b80601f016020809104026020016040519081016040528092919081815260200182805461083e9061228e565b801561088b5780601f106108605761010080835404028352916020019161088b565b820191906000526020600020905b81548152906001019060200180831161086e57829003601f168201915b5050505050905090565b60006108a08261152e565b506000908152600460205260409020546001600160a01b031690565b60006108c782610c2b565b9050806001600160a01b0316836001600160a01b0316036109395760405162461bcd60e51b815260206004820152602160248201527f4552433732313a20617070726f76616c20746f2063757272656e74206f776e656044820152603960f91b60648201526084015b60405180910390fd5b336001600160a01b038216148061095557506109558133610770565b6109c75760405162461bcd60e51b815260206004820152603e60248201527f4552433732313a20617070726f76652063616c6c6572206973206e6f7420746f60448201527f6b656e206f776e6572206e6f7220617070726f76656420666f7220616c6c00006064820152608401610930565b6109d18383611590565b505050565b600c60205281600052604060002081815481106109f257600080fd5b90600052602060002001600091509150505481565b336000908152600d602052604090205460ff16610a365760405162461bcd60e51b8152600401610930906122c8565b6001600160a01b03166000908152600d60205260409020805460ff19169055565b610a6133826115fe565b610a7d5760405162461bcd60e51b8152600401610930906122ec565b6109d183838361167d565b336000908152600d602052604090205460ff16610ab75760405162461bcd60e51b8152600401610930906122c8565b60009182526006602090815260408084206001600160a01b03939093168452600890920190529020805460ff81161560ff19909116179055565b6000828152600660208190526040909120016109d18282612388565b6109d18383836040518060200160405280600081525061132e565b336000908152600d602052604090205460ff16610b575760405162461bcd60e51b8152600401610930906122c8565b600e546000818152600660205260409020610b728982612388565b506000818152600660205260409020600101610b8e8682612388565b506000818152600660205260409020600201610baa8582612388565b5060008181526006602081905260408220600581018a905560078101805460ff1916600117905560038101929092556004820188905501610beb8482612388565b506000818152600660205260409020600701805462ff000019166201000084151502179055600e54610c1e90600161245e565b600e555050505050505050565b6000818152600260205260408120546001600160a01b0316806107fd5760405162461bcd60e51b8152602060048201526018602482015277115490cdcc8c4e881a5b9d985b1a59081d1bdad95b88125160421b6044820152606401610930565b336000908152600d602052604090205460ff16610cba5760405162461bcd60e51b8152600401610930906122c8565b6000908152600660205260409020600701805461ff001981166101009182900460ff1615909102179055565b336000908152600d602052604090205460ff16610d155760405162461bcd60e51b8152600401610930906122c8565b6001600160a01b03166000908152600d60205260409020805460ff19166001179055565b60006001600160a01b038216610da35760405162461bcd60e51b815260206004820152602960248201527f4552433732313a2061646472657373207a65726f206973206e6f7420612076616044820152683634b21037bbb732b960b91b6064820152608401610930565b506001600160a01b031660009081526003602052604090205490565b336000908152600d602052604090205460ff16610dee5760405162461bcd60e51b8152600401610930906122c8565b6000828152600660205260409020600301548111610e745760405162461bcd60e51b815260206004820152603d60248201527f596f75206d75737420736574206d617820696e766f636174696f6e732067726560448201527f61746572207468616e2063757272656e7420696e766f636174696f6e730000006064820152608401610930565b60009182526006602052604090912060040155565b600081815260066020908152604080832060058101546001600160a01b0387168552600890910190925282205460ff1615610ed8576064610ecb82605a612471565b610ed591906124a6565b90505b600083815260066020526040902060070154610100900460ff1615610f11576064610f04826050612471565b610f0e91906124a6565b90505b610f1c6001826124ba565b341015610f6b5760405162461bcd60e51b815260206004820152601860248201527f4d7573742073656e64206174206c6561737420707269636500000000000000006044820152606401610930565b60008381526006602052604090206004810154600390910154610f8f90600161245e565b1115610fdd5760405162461bcd60e51b815260206004820152601f60248201527f4d757374206e6f7420657863656564206d617820696e766f636174696f6e73006044820152606401610930565b60008381526006602052604090206007015460ff16156110375760405162461bcd60e51b8152602060048201526015602482015274283ab931b430b9b2b99030b932903830bab9b2b21760591b6044820152606401610930565b60006110438585611819565b6007546040519192506001600160a01b03169083156108fc029084906000818181858888f1935050505015801561107e573d6000803e3d6000fd5b50949350505050565b336000908152600d602052604090205460ff166110b65760405162461bcd60e51b8152600401610930906122c8565b600780546001600160a01b0319166001600160a01b0392909216919091179055565b6000818152600660205260409020805460609182918291906110f99061228e565b80601f01602080910402602001604051908101604052809291908181526020018280546111259061228e565b80156111725780601f1061114757610100808354040283529160200191611172565b820191906000526020600020905b81548152906001019060200180831161115557829003601f168201915b50505060008781526006602052604090206001018054939650926111989250905061228e565b80601f01602080910402602001604051908101604052809291908181526020018280546111c49061228e565b80156112115780601f106111e657610100808354040283529160200191611211565b820191906000526020600020905b8154815290600101906020018083116111f457829003601f168201915b50505060008781526006602052604090206002018054939550926112379250905061228e565b80601f01602080910402602001604051908101604052809291908181526020018280546112639061228e565b80156112b05780601f10611285576101008083540402835291602001916112b0565b820191906000526020600020905b81548152906001019060200180831161129357829003601f168201915b505050505090509193909250565b6060600180546108129061228e565b336000908152600d602052604090205460ff166112fc5760405162461bcd60e51b8152600401610930906122c8565b6000908152600660205260409020600701805460ff19811660ff90911615179055565b61132a33838361195d565b5050565b61133833836115fe565b6113545760405162461bcd60e51b8152600401610930906122ec565b61136084848484611a2b565b50505050565b6000818152600b60209081526040918290208054835181840281018401909452808452606093928301828280156113bc57602002820191906000526020600020905b8154815260200190600101908083116113a8575b50505050509050919050565b6000818152600a6020908152604080832054835260069091528120600701546060916201000090910460ff16151590036114a0576000828152600a602090815260408083205483526006918290529091200180546114259061228e565b80601f01602080910402602001604051908101604052809291908181526020018280546114519061228e565b80156113bc5780601f10611473576101008083540402835291602001916113bc565b820191906000526020600020905b8154815290600101906020018083116114815750939695505050505050565b6000828152600a60209081526040808320548352600691829052909120016114c783611a5e565b6040516020016114d89291906124cd565b6040516020818303038152906040529050919050565b336000908152600d602052604090205460ff1661151d5760405162461bcd60e51b8152600401610930906122c8565b600855565b60006107fd3383610e89565b6000818152600260205260409020546001600160a01b031661158d5760405162461bcd60e51b8152602060048201526018602482015277115490cdcc8c4e881a5b9d985b1a59081d1bdad95b88125160421b6044820152606401610930565b50565b600081815260046020526040902080546001600160a01b0319166001600160a01b03841690811790915581906115c582610c2b565b6001600160a01b03167f8c5be1e5ebec7d5bd14f71427d1e84f3dd0314c0f7b2291e5b200ac8c7c3b92560405160405180910390a45050565b60008061160a83610c2b565b9050806001600160a01b0316846001600160a01b0316148061165157506001600160a01b0380821660009081526005602090815260408083209388168352929052205460ff165b806116755750836001600160a01b031661166a84610895565b6001600160a01b0316145b949350505050565b826001600160a01b031661169082610c2b565b6001600160a01b0316146116f45760405162461bcd60e51b815260206004820152602560248201527f4552433732313a207472616e736665722066726f6d20696e636f72726563742060448201526437bbb732b960d91b6064820152608401610930565b6001600160a01b0382166117565760405162461bcd60e51b8152602060048201526024808201527f4552433732313a207472616e7366657220746f20746865207a65726f206164646044820152637265737360e01b6064820152608401610930565b611761600082611590565b6001600160a01b038316600090815260036020526040812080546001929061178a9084906124ba565b90915550506001600160a01b03821660009081526003602052604081208054600192906117b890849061245e565b909155505060008181526002602052604080822080546001600160a01b0319166001600160a01b0386811691821790925591518493918716917fddf252ad1be2c89b69c2b068fc378daa952ba7f163c4a11628f55a4df523b3ef91a4505050565b6000818152600660205260408120600481015460039091015461183d90600161245e565b111561188b5760405162461bcd60e51b815260206004820152601c60248201527f4e6f206d6f726520746f6b656e732063616e206265206d696e746564000000006044820152606401610930565b6000828152600660205260409020600301546118a890600161245e565b6000838152600660205260409020600301556009546118c78482611b61565b6000818152600a60209081526040808320869055858352600b82528083208054600181018255908452828420018490558583526006825291829020600501549151918252849183916001600160a01b038816917fb4c03061fb5b7fed76389d5af8f2e0ddb09f8c70d1333abbb62582835e10accb910160405180910390a460095461195390600161245e565b6009559392505050565b816001600160a01b0316836001600160a01b0316036119be5760405162461bcd60e51b815260206004820152601960248201527f4552433732313a20617070726f766520746f2063616c6c6572000000000000006044820152606401610930565b6001600160a01b03838116600081815260056020908152604080832094871680845294825291829020805460ff191686151590811790915591519182527f17307eab39ab6107e8899845ad3d59bd9653f200f220920489ca2b5937696c31910160405180910390a3505050565b611a3684848461167d565b611a4284848484611ca3565b6113605760405162461bcd60e51b815260040161093090612554565b606081600003611a855750506040805180820190915260018152600360fc1b602082015290565b8160005b8115611aaf5780611a99816125a6565b9150611aa89050600a836124a6565b9150611a89565b60008167ffffffffffffffff811115611aca57611aca611f29565b6040519080825280601f01601f191660200182016040528015611af4576020820181803683370190505b508593509050815b831561107e57611b0d600a856125bf565b611b1890603061245e565b60f81b82611b25836125d3565b92508281518110611b3857611b386125ea565b60200101906001600160f81b031916908160001a905350611b5a600a856124a6565b9350611afc565b6001600160a01b038216611bb75760405162461bcd60e51b815260206004820181905260248201527f4552433732313a206d696e7420746f20746865207a65726f20616464726573736044820152606401610930565b6000818152600260205260409020546001600160a01b031615611c1c5760405162461bcd60e51b815260206004820152601c60248201527f4552433732313a20746f6b656e20616c7265616479206d696e746564000000006044820152606401610930565b6001600160a01b0382166000908152600360205260408120805460019290611c4590849061245e565b909155505060008181526002602052604080822080546001600160a01b0319166001600160a01b03861690811790915590518392907fddf252ad1be2c89b69c2b068fc378daa952ba7f163c4a11628f55a4df523b3ef908290a45050565b60006001600160a01b0384163b15611d9957604051630a85bd0160e11b81526001600160a01b0385169063150b7a0290611ce7903390899088908890600401612600565b6020604051808303816000875af1925050508015611d22575060408051601f3d908101601f19168201909252611d1f91810190612633565b60015b611d7f573d808015611d50576040519150601f19603f3d011682016040523d82523d6000602084013e611d55565b606091505b508051600003611d775760405162461bcd60e51b815260040161093090612554565b805181602001fd5b6001600160e01b031916630a85bd0160e11b149050611675565b506001949350505050565b6001600160e01b03198116811461158d57600080fd5b600060208284031215611dcc57600080fd5b8135611dd781611da4565b9392505050565b60005b83811015611df9578181015183820152602001611de1565b50506000910152565b60008151808452611e1a816020860160208601611dde565b601f01601f19169290920160200192915050565b602081526000611dd76020830184611e02565b600060208284031215611e5357600080fd5b5035919050565b6001600160a01b038116811461158d57600080fd5b60008060408385031215611e8257600080fd5b8235611e8d81611e5a565b946020939093013593505050565b600060208284031215611ead57600080fd5b8135611dd781611e5a565b600080600060608486031215611ecd57600080fd5b8335611ed881611e5a565b92506020840135611ee881611e5a565b929592945050506040919091013590565b60008060408385031215611f0c57600080fd5b823591506020830135611f1e81611e5a565b809150509250929050565b634e487b7160e01b600052604160045260246000fd5b600067ffffffffffffffff80841115611f5a57611f5a611f29565b604051601f8501601f19908116603f01168101908282118183101715611f8257611f82611f29565b81604052809350858152868686011115611f9b57600080fd5b858560208301376000602087830101525050509392505050565b600082601f830112611fc657600080fd5b611dd783833560208501611f3f565b60008060408385031215611fe857600080fd5b82359150602083013567ffffffffffffffff81111561200657600080fd5b61201285828601611fb5565b9150509250929050565b8035801515811461202c57600080fd5b919050565b600080600080600080600060e0888a03121561204c57600080fd5b873567ffffffffffffffff8082111561206457600080fd5b6120708b838c01611fb5565b985060208a0135975060408a0135965060608a013591508082111561209457600080fd5b6120a08b838c01611fb5565b955060808a01359150808211156120b657600080fd5b6120c28b838c01611fb5565b945060a08a01359150808211156120d857600080fd5b506120e58a828b01611fb5565b9250506120f460c0890161201c565b905092959891949750929550565b6000806040838503121561211557600080fd5b50508035926020909101359150565b6060815260006121376060830186611e02565b82810360208401526121498186611e02565b9050828103604084015261215d8185611e02565b9695505050505050565b6000806040838503121561217a57600080fd5b823561218581611e5a565b91506121936020840161201c565b90509250929050565b600080600080608085870312156121b257600080fd5b84356121bd81611e5a565b935060208501356121cd81611e5a565b925060408501359150606085013567ffffffffffffffff8111156121f057600080fd5b8501601f8101871361220157600080fd5b61221087823560208401611f3f565b91505092959194509250565b6020808252825182820181905260009190848201906040850190845b8181101561225457835183529284019291840191600101612238565b50909695505050505050565b6000806040838503121561227357600080fd5b823561227e81611e5a565b91506020830135611f1e81611e5a565b600181811c908216806122a257607f821691505b6020821081036122c257634e487b7160e01b600052602260045260246000fd5b50919050565b6020808252600a908201526927b7363c9030b236b4b760b11b604082015260600190565b6020808252602e908201527f4552433732313a2063616c6c6572206973206e6f7420746f6b656e206f776e6560408201526d1c881b9bdc88185c1c1c9bdd995960921b606082015260800190565b601f8211156109d157600081815260208120601f850160051c810160208610156123615750805b601f850160051c820191505b818110156123805782815560010161236d565b505050505050565b815167ffffffffffffffff8111156123a2576123a2611f29565b6123b6816123b0845461228e565b8461233a565b602080601f8311600181146123eb57600084156123d35750858301515b600019600386901b1c1916600185901b178555612380565b600085815260208120601f198616915b8281101561241a578886015182559484019460019091019084016123fb565b50858210156124385787850151600019600388901b60f8161c191681555b5050505050600190811b01905550565b634e487b7160e01b600052601160045260246000fd5b808201808211156107fd576107fd612448565b600081600019048311821515161561248b5761248b612448565b500290565b634e487b7160e01b600052601260045260246000fd5b6000826124b5576124b5612490565b500490565b818103818111156107fd576107fd612448565b60008084546124db8161228e565b600182811680156124f3576001811461250857612537565b60ff1984168752821515830287019450612537565b8860005260208060002060005b8581101561252e5781548a820152908401908201612515565b50505082870194505b50505050835161254b818360208801611dde565b01949350505050565b60208082526032908201527f4552433732313a207472616e7366657220746f206e6f6e20455243373231526560408201527131b2b4bb32b91034b6b83632b6b2b73a32b960711b606082015260800190565b6000600182016125b8576125b8612448565b5060010190565b6000826125ce576125ce612490565b500690565b6000816125e2576125e2612448565b506000190190565b634e487b7160e01b600052603260045260246000fd5b6001600160a01b038581168252841660208201526040810183905260806060820181905260009061215d90830184611e02565b60006020828403121561264557600080fd5b8151611dd781611da456fea26469706673582212205458b67ecc10b886b921c9a9b0c4c66e36bcde3392f763e6dbb2dfd04966a93b64736f6c63430008100033",
  "linkReferences": {},
  "deployedLinkReferences": {}
}